:020000040800F2
:10000000004002202102000899070008A307000809
:1000100000000000000000000000000000000000E0
:10002000000000000000000000000000A907000818
:100030000000000000000000B3070008BD07000832
:1000400071020008710200087102000871020008C4
:1000500071020008710200087102000871020008B4
:1000600071020008710200087102000871020008A4
:100070007102000871020008710200087102000894
:100080007102000871020008710200087102000884
:1000900071020008CD070008710200087102000813
:1000A0007102000871020008710200087102000864
:1000B0007102000871020008710200087102000854
:1000C00010B5064C2378002B07D1054B002B02D02E
:1000D000044800E000BF0123237010BD2000002071
:1000E00000000000842D0008044B10B5002B03D045
:1000F0000349044800E000BF10BDC04600000000F6
:1001000024000020842D0008002243088B4274D371
:1001100003098B425FD3030A8B4244D3030B8B4208
:1001200028D3030C8B420DD3FF22090212BA030C11
:100130008B4202D31212090265D0030B8B4219D3F2
:1001400000E0090AC30B8B4201D3CB03C01A524112
:10015000830B8B4201D38B03C01A5241430B8B425A
:1001600001D34B03C01A5241030B8B4201D30B0343
:10017000C01A5241C30A8B4201D3CB02C01A52416A
:10018000830A8B4201D38B02C01A5241430A8B422D
:1001900001D34B02C01A5241030A8B4201D30B0216
:1001A000C01A5241CDD2C3098B4201D3CB01C01A30
:1001B000524183098B4201D38B01C01A524143093A
:1001C0008B4201D34B01C01A524103098B4201D328
:1001D0000B01C01A5241C3088B4201D3CB00C01A95
:1001E000524183088B4201D38B00C01A524143080D
:1001F0008B4201D34B00C01A5241411A00D2014632
:10020000524110467047FFE701B5002000F006F8A4
:1002100002BDC0460029F7D076E770477047C04658
:100220000D48854600F00AFC0C480D490D4A002394
:1002300002E0D458C4500433C4188C42F9D30A4A9B
:100240000A4C002301E013600432A242FBD302F007
:100250006DFD00F00FF8FEE70040022000000020D6
:1002600020000020FC2D00082000002004010020B8
:10027000FEE7000080B500AF00F0ECFB00F05AF89C
:100280000021002000F064FB002000F0ABFA012008
:1002900000F0A8FA022000F0A5FA032000F0A2FA6C
:1002A00000F006F900F0BCF800F018F91C4B04222D
:1002B0001A702FE01B4B1A78194B1B789A4203D106
:1002C000184B00221A7025E0164B1B780133DAB266
:1002D000144B1A70134B1B78180000F09DF9114B4A
:1002E0001A78114B1A70104BAD225A700E4A0F49F2
:1002F0000F4B180000F065FF031E01D000F0C0F99D
:100300000A2000F02DFCC046002000F07FFB030017
:10031000012BF9D1002000F079FB031ECAD0F9E7C8
:100320003D0000203C000020A4000020B40000207C
:100330004000002090B5A9B000AF64243B1918001C
:100340003C231A00002102F015FD5423FB1818006D
:1003500010231A00002102F00DFD3B1D1800502350
:100360001A00002102F006FD80239B00180001F016
:1003700051FD3B1902221A603B1980225200DA60BB
:1003800021007B1800221A617B1840225A617B18D9
:1003900002221A627B1802225A627B1800229A6299
:1003A0007B180822DA627B18802292021A637B187B
:1003B000802292045A637B18802292059A637B18EC
:1003C000180001F067FD031E01D000F059F9542117
:1003D0007B1807221A607B1802225A607B180022C1
:1003E0009A607B180022DA607B180221180002F064
:1003F000B7F8031E01D000F043F93B1D80229204A0
:100400001A603B1D0022DA643B1D180002F032FA2C
:10041000031E01D000F034F9C046BD4629B090BD9E
:1004200080B500AF204B214A1A601F4B00225A6052
:100430001D4BC02292009A601B4B0022DA601A4BBF
:1004400001221A74184B01225A74174B00229A7415
:10045000154B01225A61144B10229A61124B3F2214
:10046000DA61114B10221A620F4B01225A620E4BB5
:1004700004229A620C4B0522DA620B4B04221A63A7
:10048000094B01225A63084B00229A63064B002253
:10049000DA63054B180000F07BFC031E01D000F06E
:1004A000EFF8C046BD4680BD40000020006400401B
:1004B00080B582B000AF084B5A6B074B08210A4346
:1004C0005A63054B5B6B082213407B607B68C04618
:1004D000BD4602B080BDC0460010024080B588B065
:1004E00002AF3B0000221A603B0000225A603B0032
:1004F00002229A603B000122DA603B00264A1A6120
:100500003B00264A5A613A00254B1100180000F0C2
:10051000A5FD031E01D000F0B3F82148002300938D
:1005200000230222022100F0F6FD031E01D000F09C
:10053000A7F81B4B180000F01EFE031E01D000F0B0
:100540009FF8174B00220121180000F061FF031EE5
:1005500001D000F095F8134B0F4A1A60114B00229E
:100560005A60104B00229A600E4B80229202DA6091
:100570000C4B00221A610B4B00225A61094B0022DE
:100580009A61084B0022DA61064B00221A62C046CB
:10059000BD4606B080BDC04621030000FF07000035
:1005A00040000020B400002080B582B000AF786029
:1005B00039603B680122134021D0134B134A7868FD
:1005C000402100F043FE031E01D000F059F80F4B0C
:1005D0001B680F4A934212D10C4B5B68002B0ED163
:1005E0000A4BDA6880239B029A4208D1064B1B789B
:1005F000180000F011F8044B1A78064B1A70C04628
:10060000BD4602B080BDC046AC000020D80000202E
:10061000210300003C00002080B582B000AF020042
:10062000FB1D1A70002000F077F9012000F074F92A
:10063000022000F071F9032000F06EF9FB1D1B7819
:10064000042B14D017DC032B0DD014DC012B02D0AB
:10065000022B04D00FE0002000F042F90CE0012052
:1006600000F03EF908E0022000F03AF904E003202F
:1006700000F036F900E0C046C046BD4602B080BD7D
:1006800080B500AF002000F02BF9012000F028F920
:10069000022000F025F9032000F022F9FEE7000017
:1006A00080B582B000AF114B1A6C104B01210A4388
:1006B0001A640E4B1B6C012213407B607B680B4B52
:1006C000DA6B0A4B802149050A43DA63074BDA6B80
:1006D00080235B0513403B603B68C023DB001800B0
:1006E00000F062FAC046BD4602B080BD0010024074
:1006F00090B58BB000AF786014243B191800142318
:100700001A00002102F036FB7B681B681F4A9342E7
:1007100038D11F4BDA6B1E4B802149010A43DA6343
:100720001B4BDA6B80235B0113403B613B69184B29
:100730005A6B174B08210A435A63154B5B6B08220F
:100740001340FB60FB683B19C02292011A60210034
:100750007B1802225A607B1800229A607B180322C1
:10076000DA607B1803221A617B180A4A190010000C
:1007700001F0AAF900220021152000F0D7FA152077
:1007800000F0E9FAC046BD460BB090BD00640040E1
:1007900000100240000C005080B500AFC046BD46BE
:1007A00080BD80B500AFFEE780B500AFC046BD4656
:1007B00080BD80B500AFC046BD4680BD80B500AFEE
:1007C00000F0B2F9C046BD4680BD000080B500AF64
:1007D000034B180000F0F2FEC046BD4680BDC04687
:1007E0004000002080B58CB000AF0200FB1D1A70E5
:1007F000FB1D1B78002B0CD1364B5A6B354B082157
:100800000A435A63334B5B6B08221340BB61BB69DD
:1008100031E0FB1D1B78012B0CD12E4B5A6B2D4B5D
:1008200008210A435A632B4B5B6B082213407B6100
:100830007B6920E0FB1D1B78022B0CD1254B5A6BEA
:10084000244B08210A435A63224B5B6B0822134056
:100850003B613B690FE0FB1D1B78032B0BD11D4B4C
:100860005A6B1C4B08210A435A631A4B5B6B0822D4
:100870001340FB60FB68FB1D1A78174B5200D35ADC
:100880001A001C217B181A607B1801225A607B1801
:1008900001229A607B180322DA60FB1D1A780F4B45
:1008A0009200D3587A181100180001F00DF9FB1DC1
:1008B0001A780A4B9200D058FB1D1A78064B52004A
:1008C000D35A0122190001F088FAC046BD460CB087
:1008D00080BDC046001002409C2D00080000002092
:1008E00080B582B000AF0200FB1D1A70FB1D1A78A4
:1008F000074B9200D058FB1D1A78064B5200D35A72
:100900000022190001F069FAC046BD4602B080BD60
:10091000000000209C2D000880B582B000AF0200CE
:10092000FB1D1A70FB1D1A78074B9200D058FB1D57
:100930001A78064B5200D35A0122190001F04DFAE1
:10094000C046BD4602B080BD000000209C2D0008BE
:1009500080B588B000AF0200FB1D1A70BB1D0A1CD9
:100960001A70FB1D1B78002B0BD1264B5A6B254BA5
:1009700004210A435A63234B5B6B04221340BB6080
:10098000BB6880239B011A000C217B181A607B181E
:1009900002229A607B180322DA60BB1D1B78002BB1
:1009A0000CD17B1800225A60FB1D1A78164B92005E
:1009B000D3587A181100180001F086F8BB1D1B7877
:1009C000012B1AD10C217B18842292035A60FB1D43
:1009D0001A780D4B9200D3587A181100180001F0C4
:1009E00073F807235BB200220321180000F09EF980
:1009F00007235BB2180000F0AEF9C046BD4608B050
:100A000080BDC046001002401000002080B582B0BA
:100A100000AF0200FB1D1A70FB1D1A78064B9200F6
:100A2000D358802292011100180001F0B9F9030097
:100A30001800BD4602B080BD1000002080B500AF98
:100A4000034B802212059A60C046BD4680BDC04659
:100A500000ED00E080B582B000AFFB1D00221A70EF
:100A60000B4B1A680A4B802149000A431A60002088
:100A700000F010F8031E03D0FB1D01221A7001E0E4
:100A8000FFF70EFEFB1D1B781800BD4602B080BDAF
:100A90000020024090B585B000AF78600F23FB18AE
:100AA00000221A701D4B1B78002B2BD01C4B1C688E
:100AB0001A4B1B781900FA239800FFF725FB030057
:100AC00019002000FFF720FB0300180000F053F985
:100AD000031E12D17B68032B0AD8796801235B427D
:100AE0000022180000F022F90E4B7A681A600DE01F
:100AF0000F23FB1801221A7008E00F23FB180122B4
:100B00001A7003E00F23FB1801221A700F23FB1841
:100B10001B781800BD4605B090BDC0461C000020E3
:100B2000140000201800002080B500AF054B1B7892
:100B30001A00054B1B68D218034B1A60C046BD460D
:100B400080BDC0461C0000200001002080B500AF21
:100B5000024B1B681800BD4680BDC0460001002046
:100B600080B584B000AF7860FFF7F0FF0300BB6092
:100B70007B68FB60FB68013305D00A4B1B781A00C9
:100B8000FB689B18FB60C046FFF7E0FF0200BB68F4
:100B9000D31AFA689A42F7D8C046C046BD4604B098
:100BA00080BDC0461C00002080B582B000AF7860D8
:100BB000064B1B68064A13401900044B7A680A4327
:100BC0001A60C046BD4602B080BDC046000001406C
:100BD000FFF9FFFF80B582B000AF0200FB1D1A7065
:100BE000FB1D1B787F2B09D8FB1D1B781A001F23C8
:100BF0001A40044B012191400A001A60C046BD46CC
:100C000002B080BD00E100E090B583B000AF02000B
:100C10003960FB1D1A70FB1D1B787F2B28D82F4ACB
:100C2000FB1D1B785BB29B08C0339B009B58FA1DD1
:100C30001278110003220A40D200FF2191400A00DD
:100C4000D2431A4011003B689B01FF221A40FB1D52
:100C50001B78180003230340DB009A401F48FB1D4C
:100C60001B785BB29B080A43C0339B001A5031E0EB
:100C70001B4AFB1D1B7819000F230B40083B9B08E8
:100C800006339B00D31804331B68FA1D1278110039
:100C900003220A40D200FF2191400A00D2431A40A9
:100CA00011003B689B01FF221A40FB1D1B781800B6
:100CB00003230340DB009A400948FB1D1B781C00FE
:100CC0000F232340083B9B080A4306339B00C318AD
:100CD00004331A60C046BD4603B090BD00E100E099
:100CE00000ED00E080B582B000AF78607B685A1EEE
:100CF00080235B049A4201D3012310E00A4B7A68F7
:100D0000013A5A6001235B4203211800FFF77CFF80
:100D1000054B00229A60044B07221A60002318003A
:100D2000BD4602B080BDC04610E000E080B584B092
:100D300000AFB9607A600F217B18021C1A70BA6884
:100D40007B181B785BB211001800FFF75DFFC046EF
:100D5000BD4604B080BD80B582B000AF0200FB1D6F
:100D60001A70FB1D1B785BB21800FFF733FFC046FB
:100D7000BD4602B080BD80B582B000AF78607B68B0
:100D80001800FFF7AFFF03001800BD4602B080BD9A
:100D900080B584B000AF78607B68002B01D101235F
:100DA0004EE17B685C229B5CDBB2002B07D17B6849
:100DB0005D22002199547B681800FFF799FC7B683D
:100DC0001B689A697B681B6810218A439A61FFF748
:100DD000BDFE0300FB6012E0FFF7B8FE0200FB68F7
:100DE000D31A0A2B0BD97B681B6E01221A437B682E
:100DF0001A667B685C2203219954012320E17B68F9
:100E00001B689B6908221340082BE5D07B681B6890
:100E10009A697B681B6801210A439A61FFF796FE75
:100E20000300FB6012E0FFF791FE0200FB68D31A9B
:100E30000A2B0BD97B681B6E01221A437B681A664A
:100E40007B685C22032199540123F9E07B681B68CD
:100E50009B6901221340E6D07B681B689A697B6816
:100E60001B6802210A439A617B681B68764A934299
:100E700003D1764A7B685B6813607B681B7C012B1F
:100E800008D17B681B689A697B681B6840218A438C
:100E90009A6107E07B681B689A697B681B68402140
:100EA0000A439A617B685B7C012B09D17B681B68D4
:100EB0009A697B681B688021C9010A439A6107E02F
:100EC0007B681B689A697B681B6861490A409A6164
:100ED0007B689B7C012B08D17B681B689A697B68C7
:100EE0001B685C490A409A6108E07B681B689A6944
:100EF0007B681B68802149010A439A617B681B68F3
:100F00009B69554A134019007B689A687B681B6887
:100F10000A439A617B681B689A697B681B68A421F5
:100F20008A439A617B681B681A697B681B68102179
:100F30008A431A617B68DB68012B08D17B681B68D8
:100F40009A697B681B6804210A439A612CE07B68DC
:100F5000DB68002B28D07B68DB68022B1CD07B6809
:100F60001B689A697B681B6880210A439A617B68C9
:100F70001B681A697B681B6810210A431A617B6829
:100F8000DB68032B10D17B681B689A697B681B6840
:100F900020210A439A6107E07B681B689A697B6895
:100FA0001B6820210A439A617B689B69013B5A06B2
:100FB0007B68DB69013B1B021A437B681B6A013BB0
:100FC0001A4311007B685B69013B1A047B681B684C
:100FD0000A43DA617B689A68C0239B009A4215D164
:100FE0007B689B6A5A1E7B68DB6A013B1B021A43C3
:100FF0007B681B6B013B1B011A4311007B685B6A1A
:10100000013B1A047B681B680A43DA607B681B6833
:10101000C02299587B68DA6B7B681B680A43C02141
:101020005A507B68180000F067FC7B6800229A65C4
:101030007B6800221A667B685C2201219954002398
:101040001800BD4604B080BD00640040006500404B
:10105000FFBFFFFFFFEFFFFFFFFCFFFF80B586B084
:1010600000AF7860396017203B187A685C21525CC9
:101070001A700200BB181B78012B03D0BB181B7819
:10108000022B3DD13B681B68002B19D13B689B6844
:101090009A073B68DB68DB061A433B681B691B0445
:1010A0001A433B685B6913433B617B681A6C3B687E
:1010B0005B689B00D318BB60BB683A691A601DE08F
:1010C0003B68DB685A073B681B6913433B613B681D
:1010D0009B689A073B685B691343FB607B685A6CAB
:1010E0003B685B68DB00D318BB60BB683A691A6079
:1010F000BB680433BB60BB68FA681A60002306E073
:101100007B681B6E02221A437B681A660123180053
:10111000BD4606B080BD80B584B000AFF860B96050
:101120007A603B60FB685C229B5CDBB2012B17D1D1
:10113000FB681B6880229B583F2293431900BB68C1
:101140001A017B689B001A433B685B001A43BB692A
:101150001A43FB681B680A4380215A50002306E0AB
:10116000FB681B6E04221A43FB681A6601231800F1
:10117000BD4604B080BD80B582B000AF78607B68AA
:101180005C229B5CDBB2012B10D17B685C220221CC
:1011900099547B681B689A697B681B6801218A43A4
:1011A0009A617B6800221A66002306E07B681B6E4A
:1011B00004221A437B681A6601231800BD4602B058
:1011C00080BD80B586B000AFF860B9607A60FB681A
:1011D0005C229B5CDBB2022B2DD1FB681B68C42216
:1011E0009A5880239B03134008D0FB681B6E802213
:1011F00092001A43FB681A66012323E0FB681B6810
:10120000C4229B581B0C032213407B617B697A68C4
:10121000B968F86800F0DCFBFB681B6801217A699B
:1012200091400A00CC215A5001227B699A40FB6808
:101230009A65002306E0FB681B6E08221A43FB68D0
:101240001A6601231800BD4606B080BD80B58AB07D
:1012500000AFF860B9607A603B601B203B18FA6809
:101260005C21525C1A703B181B78022B00D0C1E045
:10127000BB68402B21D1FB681B6890229B580F2232
:10128000134008D1FB681B6E802252001A43FB6892
:101290001A660123B5E0FB681B6890229B581B0A65
:1012A00003221340FB61FB68996CFA691300DB00B1
:1012B0009B18DB00CB187B6220E0FB681B68982240
:1012C0009B580F22134008D1FB681B6E80225200EE
:1012D0001A43FB681A66012393E0FB681B68982297
:1012E0009B581B0A03221340FB61FB68D96CFA6907
:1012F0001300DB009B18DB00CB187B627B6A1A684B
:101300008023DB051A407B685A607B685B68002B92
:1013100007D17B6A1B689B0C5B055A0D7B681A60C2
:1013200005E07B6A1B68DB00DA087B681A607B6A71
:101330001A6880239B051A407B689A607B6A1B6849
:10134000DB0FDA077B681A617B6A04337B627B6A96
:101350001B681B041A0C7B68DA617B6A1A68F0232D
:101360001B031A407B68DA607B6A1A6880235B0380
:101370001A407B685A617B6A1A6880239B031A4073
:101380007B689A617B6A1B681B0E7F221A407B6810
:101390001A627B6A1B68DA0F7B685A627B6A0433C5
:1013A0007B627B6A7B6100233B620AE07A693B6A6D
:1013B000D21839683B6ACB1812781A703B6A01332D
:1013C0003B627B68DB681B0C104AD35C1A003B6AEB
:1013D0009342EBD3BB68402B05D1FB681B6894217B
:1013E000FA695A5004E0FB681B689C21FA695A505C
:1013F000002306E0FB681B6E08221A43FB681A668E
:1014000001231800BD460AB080BDC046E42D000887
:1014100080B586B000AFF860B9607A6017203B18DD
:10142000FA685C21525C1A700200BB181B78012B11
:1014300004D0BB181B78022B00D0B4E0FB681B68FB
:101440009B6D3B61BB680722134003D03B690122BF
:10145000134034D0BB683822134003D03B690222CA
:1014600013402CD0BA68E0235B00134003D03B69E3
:101470000422134023D0BA68F0235B01134003D049
:101480003B69082213401AD0BA68E0231B021340BC
:1014900003D03B691022134011D0BA68C0239B02CD
:1014A000134003D03B692022134008D0BA68FC23C4
:1014B0001B0413400BD03B694022134007D1FB684B
:1014C0001B68DA6DFB681B6801210A43DA65BB689B
:1014D0000722134003D03B690122134034D1BB687B
:1014E0003822134003D03B69022213402CD1BA6842
:1014F000E0235B00134003D03B690422134023D157
:10150000BA68F0235B01134003D03B690822134003
:101510001AD1BA68E0231B02134003D03B691022A2
:10152000134011D1BA68C0239B02134003D03B691A
:101530002022134008D1BA68FC231B0413400BD0AF
:101540003B694022134007D0FB681B68DA6DFB68DB
:101550001B6802210A43DA65BB688022134009D068
:10156000FB681B68DC229958FB681B687A680A4391
:10157000DC215A50BA6880235B00134009D0FB6815
:101580001B68E0229958FB681B687A680A43E021CF
:101590005A50FB681B68596DFB681B68BA680A43A0
:1015A0005A65002306E0FB681B6E02221A43FB68A3
:1015B0001A6601231800BD4606B080BD80B58AB00A
:1015C00000AF78607B681B681A6DE0235B011340F5
:1015D0007B627B681B685A6D7B6A13407B627B6809
:1015E0001B681B6D072213403B627B681B685A6DAA
:1015F0003B6A13403B627B681B681B6D38221340BB
:10160000FB617B681B685A6DFB691340FB617B685B
:101610001B681A6DF1231B041340BB617B681B68B8
:101620005A6DBB691340BB617B681B681A6DE02370
:101630001B0313407B617B681B685A6D7B691340F9
:101640007B617B681B681B6D402213400DD07B685B
:101650001B685B6D4022134007D07B681B684022EB
:101660001A657B68180000F02EF97B681B681A6DFC
:1016700080235B0013401DD07B681B685A6D80235C
:101680005B00134016D07B681B68D8229B583B61D7
:101690007B681B68E0229A583B6913403B617B687A
:1016A0001B68802252001A653A697B681100180095
:1016B00000F0F0F87B6A002B09D07B681B687A6A1F
:1016C0001A657A6A7B681100180000F0C0F83B6A5E
:1016D000002B09D07B681B683A6A1A653A6A7B68F6
:1016E00011001800FEF760FFFB69002B09D07B6832
:1016F0001B68FA691A65FA697B681100180000F026
:10170000AFF87B681B681A6D80239B0013400FD0D5
:101710007B681B685A6D80239B00134008D07B6850
:101720001B68802292001A657B68180000F0A1F8FF
:101730007B681B681B6D802213401BD07B681B6875
:101740005B6D8022134015D07B681B68D4229B58A8
:10175000FB607B681B68DC229A58FB681340FB60C7
:101760007B681B6880221A65FA687B681100180084
:1017700000F087F87B681B681A6D80239B0113407B
:101780000FD07B681B685A6D80239B01134008D0E3
:101790007B681B68802292011A657B68180000F044
:1017A00082F87B681B681A6D80231B0213400FD0E0
:1017B0007B681B685A6D80231B02134008D07B682E
:1017C0001B68802212021A657B68180000F073F80B
:1017D0007B681B681A6D8023DB01134011D07B6886
:1017E0001B685A6D8023DB0113400AD07B681B689D
:1017F0008022D2011A657B681B6E80221A437B68A7
:101800001A667B69002B09D07B681B687A691A65A8
:101810007A697B681100180000F065F8BB69002B3D
:1018200009D07B681B68BA691A657B681A6EBB6948
:101830001A437B681A667B681B6E002B03D07B689B
:10184000180000F048F8C046BD460AB080BD80B51B
:1018500082B000AF78603960C046BD4602B080BD3E
:1018600080B582B000AF78603960C046BD4602B036
:1018700080BD80B582B000AF7860C046BD4602B082
:1018800080BD80B582B000AF78603960C046BD468B
:1018900002B080BD80B582B000AF78603960C046CC
:1018A000BD4602B080BD80B582B000AF7860C04652
:1018B000BD4602B080BD80B582B000AF7860C04642
:1018C000BD4602B080BD80B582B000AF7860C04632
:1018D000BD4602B080BD80B582B000AF7860C04622
:1018E000BD4602B080BD80B582B000AF786039607F
:1018F000C046BD4602B080BD80B584B000AF786000
:101900002F4BBB607B681B682E4A934205D1BB6896
:10191000D422920094466344BB607B68BA681A6420
:101920007B681B6880229B58274A134019007B68FC
:101930005B6B1A047B681B680A4380215A50BB68A2
:1019400070331A007B685A647B681B6880229B583E
:101950001E4A134019007B689B6B1A067B681B6844
:101960000A4380215A50BB68B0331A007B689A64DE
:10197000BB688933FF331A007B68DA64BB6898223E
:1019800092009A187B681A65BB689E2292009A188A
:101990007B685A65BB68FB6005E0FB6800221A6043
:1019A000FB680433FB60BB68D42292009446634416
:1019B000FA689A42F1D3C046C046BD4604B080BD25
:1019C00000B4004000680040FFFFE0FFFFFFFFF0B1
:1019D00080B588B000AFF860B9607A603B60BB68E2
:1019E0005B68002B0AD1BB681A69BB689B681A4305
:1019F000BB681B689B041343FB610BE0BB681A695F
:101A0000BB689B681A43BB681B6813438022D205DE
:101A10001343FB61BB681B6A1A06BB68DB691A4388
:101A2000BB689B691A43BB685B691A43BB68DB6888
:101A300013433B61FB68596D3A681300DB009B1848
:101A4000DB00CB18BB61BB69FA691A60BB69043360
:101A5000BB61BB693A691A60BB690433BB6100238F
:101A60007B6120E07B6903337A68D3181B781A0600
:101A70007B6902337968CB181B781B041A437B6996
:101A800001337968CB181B781B02134379687A6994
:101A90008A1812781A43BB691A60BB690433BB61A8
:101AA0007B6904337B61BB68DB681B0C054AD35C34
:101AB0001A007B699342D5D3C046C046BD4608B0E4
:101AC00080BDC046E42D000880B586B000AF7860C8
:101AD000396000237B614DE13B681B6801217A6915
:101AE00091400A001340FB60FB68002B00D13EE1EF
:101AF0003B685B6803221340012B05D03B685B68A1
:101B000003221340022B30D17B689B683B617B69C9
:101B10005B0003229A401300DA433B6913403B61A8
:101B20003B68DA687B695B009A4013003A691343AB
:101B30003B617B683A699A607B685B683B61012224
:101B40007B699A401300DA433B6913403B613B6871
:101B50005B681B0901221A407B699A4013003A69AD
:101B600013433B617B683A695A603B685B680322B8
:101B70001340032B17D07B68DB683B617B695B00FC
:101B800003229A401300DA433B6913403B613B68F0
:101B90009A687B695B009A4013003A6913433B6182
:101BA0007B683A69DA603B685B6803221340022B6A
:101BB00023D17B69DA087B6808329200D3583B61F5
:101BC0007B69072213409B000F229A401300DA43DF
:101BD0003B6913403B613B681A697B6907210B40F5
:101BE0009B009A4013003A6913433B617B69DA0812
:101BF0007B68083292003969D1507B681B683B6171
:101C00007B695B0003229A401300DA433B6913406F
:101C10003B613B685B6803221A407B695B009A402A
:101C200013003A6913433B617B683A691A603B6869
:101C30005A68C0239B02134000D198E0534A7B6945
:101C40009B0818339B009B583B617B690322134020
:101C5000DB000F229A401300DA433B6913403B61DB
:101C60007A68A023DB059A4219D07B68484A9342E0
:101C700013D07B68474A93420DD07B68464A934213
:101C800007D07B68454A934201D1042308E005232D
:101C900006E0032304E0022302E0012300E0002326
:101CA0007A6903210A40D20093403A6913433B61A9
:101CB00036497B699B0818339B003A695A50334A6E
:101CC0008023D3583B61FB68DA433B6913403B6197
:101CD0003B685A6880235B02134003D03A69FB6873
:101CE00013433B61294980223B698B50274A842357
:101CF000D3583B61FB68DA433B6913403B613B6867
:101D00005A6880239B02134003D03A69FB6813434F
:101D10003B611E4984223B698B501C4B1B683B6115
:101D2000FB68DA433B6913403B613B685A68802398
:101D30005B03134003D03A69FB6813433B61134BC9
:101D40003A691A60114B5B683B61FB68DA433B6997
:101D500013403B613B685A6880239B03134003D0C8
:101D60003A69FB6813433B61084B3A695A607B69E7
:101D700001337B613B681A687B69DA40131E00D02F
:101D8000AAE6C046C046BD4606B080BD0018024067
:101D90000004005000080050000C005000100050DB
:101DA00080B584B000AF78600A00BB1C1A807B68E5
:101DB0001B69BA1C1288134004D00F23FB180122A0
:101DC0001A7003E00F23FB1800221A700F23FB1870
:101DD0001B781800BD4604B080BD80B582B000AF4E
:101DE000786008001100BB1C021C1A807B1C0A1CB6
:101DF0001A707B1C1B78002B04D0BB1C1A887B68D4
:101E00009A6103E0BB1C1A887B689A62C046BD4693
:101E100002B080BD80B584B000AF7860194B1B68FC
:101E2000194A13401900174B7A680A431A607A68F6
:101E300080239B009A421FD1144B1A6813005B0049
:101E40009B185B0012491800FEF75EF9030001338E
:101E5000FB6008E0FB68002B03D0FB68013BFB60E4
:101E600001E0032309E0074B5A698023DB001A4095
:101E70008023DB009A42EDD000231800BD4604B059
:101E800080BDC04600700040FFF9FFFF1400002035
:101E900040420F0080B588B000AF78607B68002BAF
:101EA00002D1012300F056FB7B681B68012213401E
:101EB00000D17DE0C34B9B6838221340BB61C14B0E
:101EC000DB68032213407B61BB69102B02D17B6965
:101ED000032B02D0BB69082B0CD1BA4B1A688023A4
:101EE0009B02134063D07B685B68002B5FD10123AA
:101EF00000F030FB7B685A6880235B029A4207D16E
:101F0000B04B1A68AF4B802149020A431A6020E0A7
:101F10007B685A68A023DB029A420ED1A94B1A684B
:101F2000A84B8021C9020A431A60A64B1A68A54B28
:101F3000802149020A431A600BE0A24B1A68A14BA8
:101F4000A1490A401A609F4B1A689E4B9F490A405C
:101F50001A607B685B68002B14D0FEF7F7FD030066
:101F60003B6108E0FEF7F2FD02003B69D31A642BE7
:101F700001D90323EEE2934B1A6880239B0213409E
:101F8000F0D015E0FEF7E2FD03003B6108E0FEF74C
:101F9000DDFD02003B69D31A642B01D90323D9E28A
:101FA000884B1A6880239B021340F0D100E0C046A2
:101FB0007B681B680222134000D199E0814B9B682B
:101FC00038221340BB617F4BDB68032213407B61E7
:101FD000BB69102B02D17B69022B02D0BB69002B9D
:101FE00035D1784B1A688023DB00134005D07B681D
:101FF000DB68002B01D10123ACE2724B5B68744AB1
:10200000134019007B685B691A026E4B0A435A60E1
:10201000BB69002B12D16B4B1B686E4A1340190031
:102020007B681A69674B0A431A60664B1B68DB0AB8
:1020300007221340684ADA40684B1A60684B1B68F5
:102040001800FEF727FD031E51D0012382E27B68B2
:10205000DB68002B30D05B4B1B685E4A13401900D5
:102060007B681A69574B0A431A60564B1A68554BDE
:10207000802149000A431A60FEF768FD03003B61B6
:1020800008E0FEF763FD02003B69D31A022B01D979
:1020900003235FE24B4B1A688023DB001340F0D030
:1020A000484B5B684A4A134019007B685B691A0217
:1020B000444B0A435A601BE0424B1A68414B494962
:1020C0000A401A60FEF742FD03003B6108E0FEF79C
:1020D0003DFD02003B69D31A022B01D9032339E2EB
:1020E000384B1A688023DB001340F0D100E0C04673
:1020F0007B681B680822134047D0324B9B6838220C
:102100001340182B0AD12F4B1B6E022213403CD0D8
:102110007B689B69002B38D101231BE27B689B699C
:10212000002B19D0274B1A6E264B01210A431A6641
:10213000FEF70CFD03003B6108E0FEF707FD02001F
:102140003B69D31A022B01D9032303E21D4B1B6EFB
:1021500002221340F1D018E01A4B1A6E194B0121DC
:102160008A431A66FEF7F2FC03003B6108E0FEF7C3
:10217000EDFC02003B69D31A022B01D90323E9E1EC
:10218000104B1B6E02221340F1D17B681B680422A6
:10219000134000D1C6E01F23FB1800221A70094B20
:1021A0009B6838221340202B1ED1064BDB6D022288
:1021B000134000D1B6E07B689B68002B00D0B1E0F3
:1021C0000123C7E100100240FFFFFEFFFFFFFBFFFE
:1021D000FF80FFFFFFC7FFFF0024F4001400002072
:1021E00018000020FFFEFFFFB84BDA6B80235B0571
:1021F000134001D1012300E00023002B11D0B34B89
:10220000DA6BB24B802149050A43DA63AF4BDA6BD4
:1022100080235B051340FB60FB681F23FB18012232
:102220001A70AB4B1A6880235B0013401AD1A84B7D
:102230001A68A74B802149000A431A60FEF786FC02
:1022400003003B6108E0FEF781FC02003B69D31A02
:10225000022B01D903237DE19D4B1A6880235B008B
:102260001340F0D07B689B68012B06D1974BDA6D49
:10227000964B01210A43DA651CE07B689B68052BBD
:102280000CD1924BDA6D914B04210A43DA658F4BE6
:10229000DA6D8E4B01210A43DA650BE08B4BDA6D68
:1022A0008A4B01218A43DA65884BDA6D874B04211A
:1022B0008A43DA657B689B68002B14D0FEF746FCE6
:1022C00003003B6109E0FEF741FC02003B69D31AC1
:1022D000804A934201D903233CE17C4BDB6D02220F
:1022E0001340F0D013E0FEF731FC03003B6109E03E
:1022F000FEF72CFC02003B69D31A764A934201D9BF
:10230000032327E1714BDB6D02221340F0D11F2321
:10231000FB181B78012B05D16C4BDA6B6B4B6E49AC
:102320000A40DA637B681B682022134039D07B683F
:10233000DB69002B1BD0654B1A68644B8021C903F5
:102340000A431A60FEF702FC03003B6108E0FEF757
:10235000FDFB02003B69D31A022B01D90323F9E0EC
:102360005A4B1A6880231B041340F0D019E0574BD6
:102370001A68564B59490A401A60FEF7E7FB0300FA
:102380003B6108E0FEF7E2FB02003B69D31A022B37
:1023900001D90323DEE04D4B1A6880231B04134050
:1023A000F0D17B681B6A002B00D1D2E0474B9B68C1
:1023B00038221340102B00D181E07B681B6A022B6E
:1023C00056D1424B1A68414B45490A401A60FEF704
:1023D000BDFB03003B6108E0FEF7B8FB02003B6970
:1023E000D31A022B01D90323B4E0384B1A68802397
:1023F0009B041340F0D1354BDB683A4A1340190077
:102400007B685A6A7B689B6A1A437B68DB6A1B029B
:102410001A437B681B6B1A437B685B6B1A437B68B0
:102420009B6B1A43294B0A43DA60284B1A68274BE7
:10243000802149040A431A60244BDA68234B802127
:1024400049050A43DA60FEF781FB03003B6108E0BF
:10245000FEF77CFB02003B69D31A022B01D9032350
:1024600078E01A4B1A6880239B041340F0D070E088
:10247000164B1A68154B1A490A401A60134BDA6852
:10248000124B03218A43DA60104BDA680F4B16496E
:102490000A40DA60FEF75AFB03003B6108E0FEF7F2
:1024A00055FB02003B69D31A022B01D9032351E0EB
:1024B000064B1A6880239B041340F0D149E07B68E7
:1024C0001B6A012B12D1012344E0C04600100240D8
:1024D0000070004088130000FFFFFFEFFFFFBFFF09
:1024E000FFFFFFFE8C80C111FFFFFEEE1B4BDB6880
:1024F0007B617B6903221A407B685B6A9A4226D122
:102500007B6970221A407B689B6A9A421FD17A6964
:10251000FE23DB011A407B68DB6A1B029A4216D15C
:102520007A69F8239B031A407B681B6B9A420ED191
:102530007A69E0231B051A407B685B6B9A4206D1DF
:102540007B695B0F5A077B689B6B9A4201D0012322
:1025500000E000231800BD4608B080BD0010024016
:1025600080B584B000AF786039607B68002B01D102
:102570000123E9E0764B1B68072213403A689A4230
:102580001ED9734B1B68072293431900704B3A689E
:102590000A431A60FEF7DAFA0300FB6009E0FEF76F
:1025A000D5FA0200FB68D31A6A4A934201D9032381
:1025B000CAE0674B1B68072213403A689A42EED183
:1025C0007B681B680222134015D07B681B680422BD
:1025D000134006D0604B9A685F4BE021C9010A4363
:1025E0009A605D4B9B685D4A134019007B689A684E
:1025F000594B0A439A607B681B680122134057D0ED
:102600007B685B68012B07D1534B1A6880239B02C0
:1026100013402BD1012397E07B685B68022B07D125
:102620004D4B1A6880239B0413401FD101238BE07C
:102630007B685B68002B07D1474B1A688023DB005F
:10264000134013D101237FE07B685B68032B06D125
:10265000414B1B6E0222134008D1012374E03E4B14
:10266000DB6D0222134001D101236DE03A4B9B68E0
:102670000722934319007B685A68374B0A439A60D4
:10268000FEF764FA0300FB6009E0FEF75FFA020060
:10269000FB68D31A2F4A934201D9032354E02E4BEF
:1026A0009B6838221A407B685B68DB009A42ECD159
:1026B000274B1B68072213403A689A421ED2244BCC
:1026C0001B68072293431900214B3A680A431A609A
:1026D000FEF73CFA0300FB6009E0FEF737FA020060
:1026E000FB68D31A1B4A934201D903232CE0184BF1
:1026F0001B68072213403A689A42EED17B681B6838
:102700000422134009D0144B9B68154A134019004A
:102710007B68DA68104B0A439A6000F029F80100E0
:102720000D4B9B681B0A0F221A400E4B9200D35888
:102730001F2213400A00DA400B4B1A600B4B1B6838
:102740001800FEF7A7F903001800BD4604B080BDCD
:10275000002002408813000000100240FFF0FFFF3D
:10276000FF8FFFFFA42D0008140000201800002098
:1027700080B586B000AF3C4B9B68382213400FD128
:10278000394B1B68DB0A0722134001229A401300D1
:102790003B6039683548FDF7B7FC03003B615DE0FD
:1027A000314B9B6838221340082B02D1304B3B61E0
:1027B00054E02D4B9B6838221340102B38D12A4B04
:1027C000DB6803221340FB60274BDB681B090722F1
:1027D00013400133BB60FB68032B0DD1B96824485B
:1027E000FDF792FC030019001F4BDB681B0A7F22D8
:1027F00013404B437B610DE0B9681C48FDF784FC36
:1028000003001900184BDB681B0A7F2213404B435F
:102810007B61C046144BDB685B0F0722134001331A
:102820007B6079687869FDF76FFC03003B6115E018
:102830000D4B9B6838221340202B03D180231B02B1
:102840003B610BE0084B9B6838221340182B03D1E7
:10285000FA23DB013B6101E000233B613B69180087
:10286000BD4606B080BDC046001002400024F40002
:1028700000127A0080B586B000AF78601323FB1891
:1028800000221A701223FB1800221A707B681A6843
:1028900080239B02134000D1ADE011203B180022A1
:1028A0001A70474BDA6B80235B05134010D1444B01
:1028B000DA6B434B802149050A43DA63404BDA6BFC
:1028C00080235B051340BB60BB683B1801221A7074
:1028D0003C4B1A683B4B802149000A431A60FEF7C3
:1028E00035F90300FB600BE0FEF730F90200FB68EE
:1028F000D31A022B04D91323FB1803221A7005E004
:10290000304B1A6880235B001340EDD01323FB1873
:102910001B78002B5ED12A4BDA6DC0239B0013403D
:102920007B617B69002B19D07B685B6C7A699A426A
:1029300014D0234BDB6D244A13407B61204BDA6DAE
:102940001F4B802149020A43DA651D4BDA6D1C4B8F
:102950001E490A40DA651A4B7A69DA657B690122F9
:10296000134016D0FEF7F2F80300FB600CE0FEF710
:10297000EDF80200FB68D31A154A934204D91323D9
:10298000FB1803221A7004E00D4BDB6D022213408A
:10299000EDD01323FB181B78002B0AD1084BDB6DFD
:1029A000094A134019007B685A6C054B0A43DA65E3
:1029B00016E01223FB181322BA1812781A700FE0CF
:1029C0000010024000700040FFFCFFFFFFFFFEFF11
:1029D000881300001223FB181322BA1812781A70F9
:1029E0001123FB181B78012B05D1C54BDA6BC44BA7
:1029F000C4490A40DA637B681B680122134009D08E
:102A0000BF4B5B6D0322934319007B685A68BC4B34
:102A10000A435A657B681B680222134009D0B84BF1
:102A20005B6D0C22934319007B689A68B44B0A4390
:102A30005A657B681B680422134009D0B04B5B6D5C
:102A40003022934319007B68DA68AD4B0A435A651C
:102A50007B681B681022134009D0A94B5B6DAA4A02
:102A6000134019007B681A69A54B0A435A657B68B5
:102A70001A6880235B01134009D0A14B5B6DA34A08
:102A8000134019007B685A699D4B0A435A657B685D
:102A90001A6880239B00134009D0994B5B6D9C4AB8
:102AA000134019007B689A6A954B0A435A657B6804
:102AB0001A688023DB00134009D0914B5B6D954A67
:102AC000134019007B68DA6A8D4B0A435A657B68AC
:102AD0001B682022134009D0894B5B6D8E4A13403E
:102AE00019007B689A69864B0A435A657B681B68A4
:102AF0004022134009D0824B5B6D884A1340190075
:102B00007B68DA697E4B0A435A657B681A688023C2
:102B1000DB02134016D07A4B5B6D814A13401900DB
:102B20007B681A6B764B0A435A657B681A6BC02325
:102B30001B059A4206D1724BDA68714B8021490419
:102B40000A43DA607B681A688023DB01134015D0E2
:102B50006B4B5B6D9B0099087B685A6B684B0A4313
:102B60005A657B685A6B8023DB059A4206D1644B19
:102B7000DA68634B802149020A43DA607B681A688D
:102B800080231B03134009D05D4B5B6D40229343B0
:102B900019007B689A6B5A4B0A435A657B681A681E
:102BA00080239B03134016D0554B5B6D5D4A134049
:102BB00019007B68DA6B524B0A435A657B68DA6B03
:102BC0008023DB039A4206D14D4BDA684C4B8021BF
:102BD00049040A43DA607B681A688023DB031340E8
:102BE00016D0474B5B6D504A134019007B681A6C36
:102BF000434B0A435A657B681A6C80235B049A42F4
:102C000006D13F4BDA683E4B802149040A43DA6023
:102C10007B681A6880231B01134014D0384B9B6DCE
:102C20000322934319007B681A6A354B0A439A655D
:102C30007B681B6A012B06D1314BDA68304B80214F
:102C400049020A43DA607B681A6880239B011340BB
:102C500014D02B4B9B6D0C22934319007B685A6A4E
:102C6000274B0A439A657B685B6A042B06D1244B89
:102C7000DA68234B802149020A43DA607B681A68CC
:102C800080235B04134016D01D4B9B6D224A1340DA
:102C900019007B689A6C1A4B0A439A657B689A6C98
:102CA00080239B019A4206D1154BDA68144B802190
:102CB00049040A43DA607B681A6880239B04134046
:102CC00016D00F4B9B6D114A134019007B68DA6CCC
:102CD0000B4B0A439A657B68DA6C80235B009A424F
:102CE00006D1074BDA68064B802149040A43DA60B3
:102CF0001223FB181B781800BD4606B080BDC046E5
:102D000000100240FFFFFFEFFFF3FFFFFFFCFFFF9C
:102D1000FFFFF3FFFFFFCFFFFFCFFFFFFF3FFFFFEF
:102D2000FFFFFFF3FFFFBFFFFFFFFFFE70B50026B1
:102D30000C4D0D4C641BA410A64209D1002600F0D6
:102D400021F80A4D0A4C641BA410A64205D170BD9F
:102D5000B300EB5898470136EEE7B300EB589847BD
:102D60000136F2E7F42D0008F42D0008F42D0008D8
:102D7000F82D000803008218934200D170471970A3
:102D80000133F9E7F8B5C046F8BC08BC9E46704769
:0C2D9000F8B5C046F8BC08BC9E46704771
:102D9C0020004000000100020000000000000000C4
:102DAC000000000000000000000000000000000017
:102DBC000000000000000000010000000200000004
:102DCC0003000000040000000600000007000000E3
:102DDC0008000000090000000001020304050607BA
:082DEC00080C101418203040FF
:042DF400E9000008EA
:042DF800C10000080E
:102DFC00000C0050000C0050000C0050000C005057
:102E0C00000800500024F400040000000100000041
:0400000508000221CC
:00000001FF
